{
  "_format": "hh-sol-artifact-1",
  "contractName": "Contratto_Registrazione_Autenticazione",
  "sourceName": "contracts/Contratto_Registrazione_Autenticazione.sol",
  "abi": [
    {
      "anonymous": false,
      "inputs": [
        {
          "indexed": false,
          "internalType": "bytes32",
          "name": "riferimento",
          "type": "bytes32"
        }
      ],
      "name": "RegistrazioneDispositivoIoTEvent",
      "type": "event"
    },
    {
      "anonymous": false,
      "inputs": [
        {
          "indexed": false,
          "internalType": "bytes32",
          "name": "riferimento",
          "type": "bytes32"
        }
      ],
      "name": "avviaAutenticazioneEvent",
      "type": "event"
    },
    {
      "anonymous": false,
      "inputs": [
        {
          "indexed": false,
          "internalType": "string",
          "name": "str",
          "type": "string"
        }
      ],
      "name": "confermaAutenticazione",
      "type": "event"
    },
    {
      "inputs": [
        {
          "internalType": "string",
          "name": "_idA",
          "type": "string"
        },
        {
          "internalType": "string",
          "name": "riferimentoAutenticazione",
          "type": "string"
        }
      ],
      "name": "autenticazioneStabilita",
      "outputs": [
        {
          "internalType": "bool",
          "name": "",
          "type": "bool"
        }
      ],
      "stateMutability": "view",
      "type": "function"
    },
    {
      "inputs": [
        {
          "internalType": "string",
          "name": "_idA",
          "type": "string"
        },
        {
          "internalType": "string",
          "name": "riferimentoAutenticazione",
          "type": "string"
        },
        {
          "internalType": "string",
          "name": "_addressB",
          "type": "string"
        },
        {
          "internalType": "string",
          "name": "_NInitA",
          "type": "string"
        },
        {
          "internalType": "string",
          "name": "_NSA",
          "type": "string"
        },
        {
          "internalType": "string",
          "name": "_NSB",
          "type": "string"
        }
      ],
      "name": "avviaAutenticazione",
      "outputs": [],
      "stateMutability": "nonpayable",
      "type": "function"
    },
    {
      "inputs": [
        {
          "internalType": "string",
          "name": "_idA",
          "type": "string"
        },
        {
          "internalType": "string",
          "name": "riferimentoAutenticazione",
          "type": "string"
        },
        {
          "internalType": "bool",
          "name": "server",
          "type": "bool"
        }
      ],
      "name": "completaAutenticazioneServer",
      "outputs": [],
      "stateMutability": "nonpayable",
      "type": "function"
    },
    {
      "inputs": [
        {
          "internalType": "string",
          "name": "_idA",
          "type": "string"
        },
        {
          "internalType": "string",
          "name": "_idB",
          "type": "string"
        }
      ],
      "name": "getCIDs",
      "outputs": [
        {
          "internalType": "string",
          "name": "",
          "type": "string"
        },
        {
          "internalType": "string",
          "name": "",
          "type": "string"
        }
      ],
      "stateMutability": "view",
      "type": "function"
    },
    {
      "inputs": [
        {
          "internalType": "string",
          "name": "_id",
          "type": "string"
        }
      ],
      "name": "getInfoDispositivoIoT",
      "outputs": [
        {
          "internalType": "string",
          "name": "",
          "type": "string"
        },
        {
          "internalType": "string",
          "name": "",
          "type": "string"
        },
        {
          "internalType": "string",
          "name": "",
          "type": "string"
        }
      ],
      "stateMutability": "view",
      "type": "function"
    },
    {
      "inputs": [
        {
          "internalType": "string",
          "name": "_idA",
          "type": "string"
        },
        {
          "internalType": "string",
          "name": "riferimentoAutenticazione",
          "type": "string"
        }
      ],
      "name": "ottieniDatiAutenticazione",
      "outputs": [
        {
          "internalType": "string",
          "name": "",
          "type": "string"
        },
        {
          "internalType": "string",
          "name": "",
          "type": "string"
        },
        {
          "internalType": "string",
          "name": "",
          "type": "string"
        },
        {
          "internalType": "string",
          "name": "",
          "type": "string"
        },
        {
          "internalType": "string",
          "name": "",
          "type": "string"
        }
      ],
      "stateMutability": "view",
      "type": "function"
    },
    {
      "inputs": [
        {
          "internalType": "string",
          "name": "_id",
          "type": "string"
        },
        {
          "internalType": "string",
          "name": "_CID",
          "type": "string"
        },
        {
          "internalType": "string",
          "name": "_helperData",
          "type": "string"
        }
      ],
      "name": "registrazioneDispositivoIoT",
      "outputs": [],
      "stateMutability": "nonpayable",
      "type": "function"
    }
  ],
  "bytecode": "0x608060405234801561001057600080fd5b5061265f806100206000396000f3fe608060405234801561001057600080fd5b506004361061007d5760003560e01c80637d79019f1161005b5780637d79019f146100ec5780638baea3dd1461011d578063a8c0c85214610151578063d014e2d01461016d5761007d565b806335bfaa97146100825780633f63d417146100b45780635d357dae146100d0575b600080fd5b61009c60048036038101906100979190611424565b61019d565b6040516100ab939291906114ec565b60405180910390f35b6100ce60048036038101906100c99190611570565b610364565b005b6100ea60048036038101906100e591906115fb565b6105fa565b005b61010660048036038101906101019190611730565b610915565b6040516101149291906117a8565b60405180910390f35b61013760048036038101906101329190611730565b610b49565b6040516101489594939291906117df565b60405180910390f35b61016b60048036038101906101669190611855565b610f73565b005b61018760048036038101906101829190611730565b611149565b604051610194919061190b565b60405180910390f35b606080606060006101ad8561129a565b9050600080600083815260200190815260200160002060000180546101d190611955565b905011610213576040517f08c379a000000000000000000000000000000000000000000000000000000000815260040161020a906119d2565b60405180910390fd5b8460008083815260200190815260200160002060000160008084815260200190815260200160002060010181805461024a90611955565b80601f016020809104026020016040519081016040528092919081815260200182805461027690611955565b80156102c35780601f10610298576101008083540402835291602001916102c3565b820191906000526020600020905b8154815290600101906020018083116102a657829003601f168201915b505050505091508080546102d690611955565b80601f016020809104026020016040519081016040528092919081815260200182805461030290611955565b801561034f5780601f106103245761010080835404028352916020019161034f565b820191906000526020600020905b81548152906001019060200180831161033257829003601f168201915b50505050509050935093509350509193909250565b600061036f8461129a565b9050600061037c8461129a565b9050600080600084815260200190815260200160002060000180546103a090611955565b9050116103e2576040517f08c379a00000000000000000000000000000000000000000000000000000000081526004016103d990611a64565b60405180910390fd5b600060016000838152602001908152602001600020600001805461040590611955565b905011610447576040517f08c379a000000000000000000000000000000000000000000000000000000000815260040161043e90611ad0565b60405180910390fd5b6060831561050757600015156001600084815260200190815260200160002060040160019054906101000a900460ff161515146104b9576040517f08c379a00000000000000000000000000000000000000000000000000000000081526004016104b090611b62565b60405180910390fd5b600180600084815260200190815260200160002060040160016101000a81548160ff0219169083151502179055506040518060600160405280602c81526020016125d2602c913990506105bb565b600015156001600084815260200190815260200160002060040160009054906101000a900460ff16151514610571576040517f08c379a000000000000000000000000000000000000000000000000000000000815260040161056890611bf4565b60405180910390fd5b600180600084815260200190815260200160002060040160006101000a81548160ff0219169083151502179055506040518060600160405280602c81526020016125fe602c913990505b7f21edfb770f732351f676928df43cf839762c3dc060de6199aa0b734ae36ce3e7816040516105ea9190611c14565b60405180910390a1505050505050565b60006106058761129a565b905060006106128761129a565b90506000806000848152602001908152602001600020600001805461063690611955565b905011610678576040517f08c379a000000000000000000000000000000000000000000000000000000000815260040161066f90611ca8565b60405180910390fd5b600060016000838152602001908152602001600020600001805461069b90611955565b9050146106dd576040517f08c379a00000000000000000000000000000000000000000000000000000000081526004016106d490611d3a565b60405180910390fd5b6000865111610721576040517f08c379a000000000000000000000000000000000000000000000000000000000815260040161071890611dcc565b60405180910390fd5b6000855111610765576040517f08c379a000000000000000000000000000000000000000000000000000000000815260040161075c90611e5e565b60405180910390fd5b60008451116107a9576040517f08c379a00000000000000000000000000000000000000000000000000000000081526004016107a090611ef0565b60405180910390fd5b60008351116107ed576040517f08c379a00000000000000000000000000000000000000000000000000000000081526004016107e490611f82565b60405180910390fd5b60006040518060c001604052808881526020018781526020018681526020018581526020016000151581526020016000151581525090508060016000848152602001908152602001600020600082015181600001908161084d9190612158565b5060208201518160010190816108639190612158565b5060408201518160020190816108799190612158565b50606082015181600301908161088f9190612158565b5060808201518160040160006101000a81548160ff02191690831515021790555060a08201518160040160016101000a81548160ff0219169083151502179055509050507f5b521dbabd23a14932f6125c1d5b1936dc0180e406afe04ec6b01f7b48cb432e826040516109029190612243565b60405180910390a1505050505050505050565b60608060006109238561129a565b905060006109308561129a565b90506000806000848152602001908152602001600020600001805461095490611955565b905011610996576040517f08c379a000000000000000000000000000000000000000000000000000000000815260040161098d906122aa565b60405180910390fd5b600080600083815260200190815260200160002060000180546109b890611955565b9050116109fa576040517f08c379a00000000000000000000000000000000000000000000000000000000081526004016109f190612316565b60405180910390fd5b600080838152602001908152602001600020600001600080838152602001908152602001600020600001818054610a3090611955565b80601f0160208091040260200160405190810160405280929190818152602001828054610a5c90611955565b8015610aa95780601f10610a7e57610100808354040283529160200191610aa9565b820191906000526020600020905b815481529060010190602001808311610a8c57829003601f168201915b50505050509150808054610abc90611955565b80601f0160208091040260200160405190810160405280929190818152602001828054610ae890611955565b8015610b355780601f10610b0a57610100808354040283529160200191610b35565b820191906000526020600020905b815481529060010190602001808311610b1857829003601f168201915b505050505090509350935050509250929050565b60608060608060606000610b5c8861129a565b90506000610b698861129a565b905060008060008481526020019081526020016000206000018054610b8d90611955565b905011610bcf576040517f08c379a0000000000000000000000000000000000000000000000000000000008152600401610bc690611a64565b60405180910390fd5b6000600160008381526020019081526020016000206000018054610bf290611955565b905011610c34576040517f08c379a0000000000000000000000000000000000000000000000000000000008152600401610c2b90611ad0565b60405180910390fd5b60016000828152602001908152602001600020600001600160008381526020019081526020016000206001016001600084815260200190815260200160002060020160016000858152602001908152602001600020600301600080878152602001908152602001600020600001848054610cad90611955565b80601f0160208091040260200160405190810160405280929190818152602001828054610cd990611955565b8015610d265780601f10610cfb57610100808354040283529160200191610d26565b820191906000526020600020905b815481529060010190602001808311610d0957829003601f168201915b50505050509450838054610d3990611955565b80601f0160208091040260200160405190810160405280929190818152602001828054610d6590611955565b8015610db25780601f10610d8757610100808354040283529160200191610db2565b820191906000526020600020905b815481529060010190602001808311610d9557829003601f168201915b50505050509350828054610dc590611955565b80601f0160208091040260200160405190810160405280929190818152602001828054610df190611955565b8015610e3e5780601f10610e1357610100808354040283529160200191610e3e565b820191906000526020600020905b815481529060010190602001808311610e2157829003601f168201915b50505050509250818054610e5190611955565b80601f0160208091040260200160405190810160405280929190818152602001828054610e7d90611955565b8015610eca5780601f10610e9f57610100808354040283529160200191610eca565b820191906000526020600020905b815481529060010190602001808311610ead57829003601f168201915b50505050509150808054610edd90611955565b80601f0160208091040260200160405190810160405280929190818152602001828054610f0990611955565b8015610f565780601f10610f2b57610100808354040283529160200191610f56565b820191906000526020600020905b815481529060010190602001808311610f3957829003601f168201915b505050505090509650965096509650965050509295509295909350565b6000610f7e8461129a565b905060008060008381526020019081526020016000206000018054610fa290611955565b905014610fe4576040517f08c379a0000000000000000000000000000000000000000000000000000000008152600401610fdb906123a8565b60405180910390fd5b6000845111611028576040517f08c379a000000000000000000000000000000000000000000000000000000000815260040161101f9061243a565b60405180910390fd5b600083511161106c576040517f08c379a0000000000000000000000000000000000000000000000000000000008152600401611063906124cc565b60405180910390fd5b60008251116110b0576040517f08c379a00000000000000000000000000000000000000000000000000000000081526004016110a79061255e565b60405180910390fd5b600060405180604001604052808581526020018481525090508060008084815260200190815260200160002060008201518160000190816110f19190612158565b5060208201518160010190816111079190612158565b509050507f3804bb1b9df93555465712c84b71dcf1d2f87a0b7cabdf0f2fe619f1ed9ed98b8260405161113a9190612243565b60405180910390a15050505050565b6000806111558461129a565b905060006111628461129a565b90506000806000848152602001908152602001600020600001805461118690611955565b9050116111c8576040517f08c379a00000000000000000000000000000000000000000000000000000000081526004016111bf90611a64565b60405180910390fd5b60006001600083815260200190815260200160002060000180546111eb90611955565b90501161122d576040517f08c379a000000000000000000000000000000000000000000000000000000000815260040161122490611ad0565b60405180910390fd5b6001600082815260200190815260200160002060040160019054906101000a900460ff16801561127d57506001600082815260200190815260200160002060040160009054906101000a900460ff165b1561128d57600192505050611294565b6000925050505b92915050565b6000816040516020016112ad91906125ba565b604051602081830303815290604052805190602001209050919050565b6000604051905090565b600080fd5b600080fd5b600080fd5b600080fd5b6000601f19601f8301169050919050565b7f4e487b7100000000000000000000000000000000000000000000000000000000600052604160045260246000fd5b611331826112e8565b810181811067ffffffffffffffff821117156113505761134f6112f9565b5b80604052505050565b60006113636112ca565b905061136f8282611328565b919050565b600067ffffffffffffffff82111561138f5761138e6112f9565b5b611398826112e8565b9050602081019050919050565b82818337600083830152505050565b60006113c76113c284611374565b611359565b9050828152602081018484840111156113e3576113e26112e3565b5b6113ee8482856113a5565b509392505050565b600082601f83011261140b5761140a6112de565b5b813561141b8482602086016113b4565b91505092915050565b60006020828403121561143a576114396112d4565b5b600082013567ffffffffffffffff811115611458576114576112d9565b5b611464848285016113f6565b91505092915050565b600081519050919050565b600082825260208201905092915050565b60005b838110156114a757808201518184015260208101905061148c565b60008484015250505050565b60006114be8261146d565b6114c88185611478565b93506114d8818560208601611489565b6114e1816112e8565b840191505092915050565b6000606082019050818103600083015261150681866114b3565b9050818103602083015261151a81856114b3565b9050818103604083015261152e81846114b3565b9050949350505050565b60008115159050919050565b61154d81611538565b811461155857600080fd5b50565b60008135905061156a81611544565b92915050565b600080600060608486031215611589576115886112d4565b5b600084013567ffffffffffffffff8111156115a7576115a66112d9565b5b6115b3868287016113f6565b935050602084013567ffffffffffffffff8111156115d4576115d36112d9565b5b6115e0868287016113f6565b92505060406115f18682870161155b565b9150509250925092565b60008060008060008060c08789031215611618576116176112d4565b5b600087013567ffffffffffffffff811115611636576116356112d9565b5b61164289828a016113f6565b965050602087013567ffffffffffffffff811115611663576116626112d9565b5b61166f89828a016113f6565b955050604087013567ffffffffffffffff8111156116905761168f6112d9565b5b61169c89828a016113f6565b945050606087013567ffffffffffffffff8111156116bd576116bc6112d9565b5b6116c989828a016113f6565b935050608087013567ffffffffffffffff8111156116ea576116e96112d9565b5b6116f689828a016113f6565b92505060a087013567ffffffffffffffff811115611717576117166112d9565b5b61172389828a016113f6565b9150509295509295509295565b60008060408385031215611747576117466112d4565b5b600083013567ffffffffffffffff811115611765576117646112d9565b5b611771858286016113f6565b925050602083013567ffffffffffffffff811115611792576117916112d9565b5b61179e858286016113f6565b9150509250929050565b600060408201905081810360008301526117c281856114b3565b905081810360208301526117d681846114b3565b90509392505050565b600060a08201905081810360008301526117f981886114b3565b9050818103602083015261180d81876114b3565b9050818103604083015261182181866114b3565b9050818103606083015261183581856114b3565b9050818103608083015261184981846114b3565b90509695505050505050565b60008060006060848603121561186e5761186d6112d4565b5b600084013567ffffffffffffffff81111561188c5761188b6112d9565b5b611898868287016113f6565b935050602084013567ffffffffffffffff8111156118b9576118b86112d9565b5b6118c5868287016113f6565b925050604084013567ffffffffffffffff8111156118e6576118e56112d9565b5b6118f2868287016113f6565b9150509250925092565b61190581611538565b82525050565b600060208201905061192060008301846118fc565b92915050565b7f4e487b7100000000000000000000000000000000000000000000000000000000600052602260045260246000fd5b6000600282049050600182168061196d57607f821691505b6020821081036119805761197f611926565b5b50919050565b7f446973706f73697469766f206e6f6e207265676973747261746f210000000000600082015250565b60006119bc601b83611478565b91506119c782611986565b602082019050919050565b600060208201905081810360008301526119eb816119af565b9050919050565b7f446973706f73697469766f206e6f6e207265676973747261746f20707265636560008201527f64656e74656d656e74652e000000000000000000000000000000000000000000602082015250565b6000611a4e602b83611478565b9150611a59826119f2565b604082019050919050565b60006020820190508181036000830152611a7d81611a41565b9050919050565b7f417574656e746963617a696f6e65206e6f6e20617676696174612e0000000000600082015250565b6000611aba601b83611478565b9150611ac582611a84565b602082019050919050565b60006020820190508181036000830152611ae981611aad565b9050919050565b7f496c20646973706f73697469766f2042206861206769612720636f6e6665726d60008201527f61746f206c27617574656e746963617a696f6e65210000000000000000000000602082015250565b6000611b4c603583611478565b9150611b5782611af0565b604082019050919050565b60006020820190508181036000830152611b7b81611b3f565b9050919050565b7f496c20646973706f73697469766f2041206861206769612720636f6e6665726d60008201527f61746f206c27617574656e746963617a696f6e65210000000000000000000000602082015250565b6000611bde603583611478565b9150611be982611b82565b604082019050919050565b60006020820190508181036000830152611c0d81611bd1565b9050919050565b60006020820190508181036000830152611c2e81846114b3565b905092915050565b7f446973706f73697469766f206e6f6e207265676973747261746f20707265636560008201527f64656e74656d656e746521000000000000000000000000000000000000000000602082015250565b6000611c92602b83611478565b9150611c9d82611c36565b604082019050919050565b60006020820190508181036000830152611cc181611c85565b9050919050565b7f417574656e746963617a696f6e6520676961206176766961746120636f6e207160008201527f756573746f20646973706f73697469766f2e0000000000000000000000000000602082015250565b6000611d24603283611478565b9150611d2f82611cc8565b604082019050919050565b60006020820190508181036000830152611d5381611d17565b9050919050565b7f4c27696e646972697a7a6f206e6f6e2070756f27206573736572652076756f7460008201527f6f00000000000000000000000000000000000000000000000000000000000000602082015250565b6000611db6602183611478565b9150611dc182611d5a565b604082019050919050565b60006020820190508181036000830152611de581611da9565b9050919050565b7f496c2063616d706f204e496e697441206e6f6e2070756f27206573736572652060008201527f76756f746f000000000000000000000000000000000000000000000000000000602082015250565b6000611e48602583611478565b9150611e5382611dec565b604082019050919050565b60006020820190508181036000830152611e7781611e3b565b9050919050565b7f496c2063616d706f204e5341206e6f6e2070756f27206573736572652076756f60008201527f746f000000000000000000000000000000000000000000000000000000000000602082015250565b6000611eda602283611478565b9150611ee582611e7e565b604082019050919050565b60006020820190508181036000830152611f0981611ecd565b9050919050565b7f496c2063616d706f204e5342206e6f6e2070756f27206573736572652076756f60008201527f746f000000000000000000000000000000000000000000000000000000000000602082015250565b6000611f6c602283611478565b9150611f7782611f10565b604082019050919050565b60006020820190508181036000830152611f9b81611f5f565b9050919050565b60008190508160005260206000209050919050565b60006020601f8301049050919050565b600082821b905092915050565b6000600883026120047fffffffffffffffffffffffffffffffffffffffffffffffffffffffffffffffff82611fc7565b61200e8683611fc7565b95508019841693508086168417925050509392505050565b6000819050919050565b6000819050919050565b600061205561205061204b84612026565b612030565b612026565b9050919050565b6000819050919050565b61206f8361203a565b61208361207b8261205c565b848454611fd4565b825550505050565b600090565b61209861208b565b6120a3818484612066565b505050565b5b818110156120c7576120bc600082612090565b6001810190506120a9565b5050565b601f82111561210c576120dd81611fa2565b6120e684611fb7565b810160208510156120f5578190505b61210961210185611fb7565b8301826120a8565b50505b505050565b600082821c905092915050565b600061212f60001984600802612111565b1980831691505092915050565b6000612148838361211e565b9150826002028217905092915050565b6121618261146d565b67ffffffffffffffff81111561217a576121796112f9565b5b6121848254611955565b61218f8282856120cb565b600060209050601f8311600181146121c257600084156121b0578287015190505b6121ba858261213c565b865550612222565b601f1984166121d086611fa2565b60005b828110156121f8578489015182556001820191506020850194506020810190506121d3565b868310156122155784890151612211601f89168261211e565b8355505b6001600288020188555050505b505050505050565b6000819050919050565b61223d8161222a565b82525050565b60006020820190506122586000830184612234565b92915050565b7f446973706f73697469766f2041206e6f6e207265676973747261746f21000000600082015250565b6000612294601d83611478565b915061229f8261225e565b602082019050919050565b600060208201905081810360008301526122c381612287565b9050919050565b7f446973706f73697469766f2042206e6f6e207265676973747261746f21000000600082015250565b6000612300601d83611478565b915061230b826122ca565b602082019050919050565b6000602082019050818103600083015261232f816122f3565b9050919050565b7f446973706f73697469766f207265676973747261746f20707265636564656e7460008201527f656d656e74652e00000000000000000000000000000000000000000000000000602082015250565b6000612392602783611478565b915061239d82612336565b604082019050919050565b600060208201905081810360008301526123c181612385565b9050919050565b7f496c2063616d706f206964206e6f6e2070756f27206573736572652076756f7460008201527f6f00000000000000000000000000000000000000000000000000000000000000602082015250565b6000612424602183611478565b915061242f826123c8565b604082019050919050565b6000602082019050818103600083015261245381612417565b9050919050565b7f496c2063616d706f20434944206e6f6e2070756f27206573736572652076756f60008201527f746f000000000000000000000000000000000000000000000000000000000000602082015250565b60006124b6602283611478565b91506124c18261245a565b604082019050919050565b600060208201905081810360008301526124e5816124a9565b9050919050565b7f496c2063616d706f2068656c70657244617461206e6f6e2070756f272065737360008201527f6572652076756f746f0000000000000000000000000000000000000000000000602082015250565b6000612548602983611478565b9150612553826124ec565b604082019050919050565b600060208201905081810360008301526125778161253b565b9050919050565b600081905092915050565b60006125948261146d565b61259e818561257e565b93506125ae818560208601611489565b80840191505092915050565b60006125c68284612589565b91508190509291505056fe446973706f73697469766f204220686120636f6e6665726d61746f206c27617574656e746963617a696f6e65446973706f73697469766f204120686120636f6e6665726d61746f206c27617574656e746963617a696f6e65a2646970667358221220053380c7fdba7c66e7a9f827d55d4a9deb26fc8a6bdf97504bd2771de870e83b64736f6c63430008130033",
  "linkReferences": {},
  "deployedLinkReferences": {}
}